:020000020000FC
:0200000040C0FE
:10000A002A1B3B0B4C0B58F0F23031F4052E142E00
:10001A00232E322E411217C0F1E053950AC0F13057
:10002A0031F4452E542E632E722E01120CC0F2E0CA
:10003A005A9551BFAA27BB27CC27DD2720E034EDEC
:10004A0040E358BB1895730C621C511C12F0542DD6
:10005A0001C0502D052F112708D0109518BB1197F4
:10006A00000000000000D9F7F8CFE199FECF1EBBCF
:10007A000DBBE29AE19A089507E00EBD00E809BFB8
:10008A0000270EBBE09A0DB307FF01BF51B70FEF70
:10009A0007BB20E034ED40E301E010E0AA27BB27CC
:0E00AA00CC27FF277894A00FB11FC11FFCCFF9
:00000001FF
