:020000020000FC
:10000000CFC0FFB604C30000FFB663956A3039F075
:1000100021E030916F0036274FD2FFBE1895309106
:100020006E0030936F00662721E0362745D2739526
:100030007A3039F022E030916F0037273DD2FFBE91
:100040001895772722E030916F00372735D28395B6
:100050008A3831F023E0382F30682ED2FFBE189551
:1000600080E823E0382F306827D29395963029F026
:1000700024E0392F21D2FFBE1895992724E0392F8B
:100080001BD2A395AA3029F025E03A2F15D2FFBE46
:100090001895AA2725E03A2F0FD2B395B63029F04C
:1000A00026E03B2F09D2FFBE1895BB2726E03B2F49
:1000B00003D2C39522E0C430D20789F0CA3029F0B8
:1000C00027E03C2FF9D1FFBE1895CC2727E03C2F25
:1000D000F3D1D39528E03D2FEFD1FFBE1895DD2752
:1000E000CC2727E03C2FE8D128E03D2FE5D1212D7A
:1000F000229520298216B1F003942AE0021631F0ED
:1001000021E0302D3A29EED1FFBE1895002421E0E0
:10011000302D3A29E7D1139422E0312D3929E2D14B
:10012000FFBE1895112421E0022E302D3A29DAD194
:1001300022E0312D3929D6D121E032E823163206CA
:1001400099F02AE82394221629F023E0322DCAD10F
:10015000FFBE189530E8232E23E0C4D1339424E069
:10016000332DC0D1FFBE189521E8222E332423E081
:10017000322DB8D124E0332DB5D143942AE842166C
:1001800029F025E0342DAED1FFBE189530E8432E7E
:1001900025E0A8D1539426E0352DA4D1FFBE1895B3
:1001A00000270EBBE09A0DB307FF01BF000000E877
:1001B00000936E0000E0009370000AE00EBD07E2BD
:1001C0000BBD00E10ABD00E409BF03E005BF00E488
:1001D0000BBF0FE007BB00E008BB01BB0ABB00E69A
:1001E00002BB03E00BBB00E002B903E309B900E185
:1001F0000AB906E003B929E03FEF8AD12AE03FE0DF
:1002000087D12BE037E084D12FEF30E0859B339509
:100210007FD12CE031E07CD1DD27CC27BB27AA277A
:10022000992780E87727662728E03AE05BD127E026
:100230003AE058D126E03AE055D125E03AE852D1EB
:1002400024E03AE04FD123E03AE84CD122E03AE012
:1002500049D121E03AE046D128E03AE02DD127E02B
:100260003AE02AD126E03AE027D125E03AE024D14D
:1002700024E03AE021D123E03AE01ED1789414D171
:100280004432E1F711D14734C9F70ED10DD14235CF
:10029000A9F70AD14D3491F707D1433479F704D146
:1002A00003D14C3259F34F7040936700FDD04F702B
:1002B00040936600F9D04F7040936500F5D04F70C1
:1002C00040936400F1D04F7040936300EDD04F70C5
:1002D000406840936200E8D0E7D04F7040936100DF
:1002E000E3D04F7040936000E3D0DED0413419F486
:1002F00050E850937000DCD0DBD0DAD0D9D0D8D021
:10030000D7D0D6D0D1D04F7040936900CDD04F70A8
:1003100040936800C9D04F7040936B005AE0772437
:1003200040FD752EC1D04F70740E406840936A0036
:10033000BBD04F7040936D006624650E4A95E9F777
:10034000B3D04F70640E406840936C00F894F6E0B0
:10035000E0E0E70D8490EA95B490462D4C7F461579
:1003600039F442E0741609F48394E23009F4B3944A
:1003700050906D0040906C0030906B0020906A00AF
:100380001090690000906800D0916700C0916600ED
:10039000B0916500A091640090916300809162002B
:1003A000C99B7EC0C89B78C0869901C075C040E8D3
:1003B000942EAA2446EF4C0FD23009F44C5ED13073
:1003C00009F4465FDD2744233AF04A5010F0D395F4
:1003D000FCCF465FC42F33C0485E4A5010F0D3951F
:1003E000FCCF465FC42F0A9411F022F028C01120E0
:1003F00029F025C01A9429E0022E21C02FE00B2CF1
:1004000002221B2C1294122240E824262A9419F06E
:1004100032F0242614C0332031F0242610C03324B7
:1004200029E8222E0CC022E8222E21E0322E44267A
:1004300019F04A94442603C029E8422E5A9428E031
:1004400032E050D027E030E04DD026E0352D4AD0C4
:1004500025E0342D47D024E0332D44D023E0322D45
:1004600041D022E0312D39293DD021E0302D3A29EB
:1004700039D028E03D2F20D027E03C2F1DD026E0AA
:100480003B2F1AD025E03A2F17D024E0392F14D073
:1004900023E0382F11D0F2CE9924AA2447EF8BCF36
:1004A00040E8A42E9924CBCF5F9BFECF4CB108959A
:1004B000FBDF4C32E9F7089510E1C19808E027FD11
:1004C000016008BB330F221F00000000C19A00002A
:1004D00000001A9591F7C29A00000000C198000030
:1004E0000000089510E1C19804E027FD016008BBF9
:1004F000330F221F00000000C19A000000001A956F
:1005000091F7C39A00000000C19800000000089510
:1005100010E1C198002727FD016008BB330F221F9F
:1005200000000000C19A000000001A9591F7C29ADD
:0E053000C39A00000000C1980000000008956A
:100600003131283130313031313031303100FF93E8
:10061000EF93FF27FDBDFCBDE0916E00F0917000EF
:10062000EF27E0936E00753058F4EAB5FBB53196CC
:10063000FBBDEABD70E060E0EF91FF91FFBE189551
:10064000EAB5FBB53197FBBDEABD79E069E0F1E0C1
:08065000F8BFEF91FF91D9CC36
:00000001FF
