:020000020000FC
:10000000CFC0FFB67FC20000FFB663956A3039F0FB
:1000100021E030916F00362732D2FFBE1895309123
:100020006E0030936F00662721E0362728D2739543
:100030007A3039F022E030916F00372720D2FFBEAE
:100040001895772722E030916F00372718D28395D3
:100050008A3831F023E0382F306811D2FFBE18956E
:1000600080E823E0382F30680AD29395963029F043
:1000700024E0392F04D2FFBE1895992724E0392FA8
:10008000FED1A395AA3029F025E03A2FF8D1FFBE82
:100090001895AA2725E03A2FF2D1B395B63029F06A
:1000A00026E03B2FECD1FFBE1895BB2726E03B2F67
:1000B000E6D1C39522E0C430D20789F0CA3029F0D6
:1000C00027E03C2FDCD1FFBE1895CC2727E03C2F42
:1000D000D6D1D39528E03D2FD2D1FFBE1895DD278C
:1000E000CC2727E03C2FCBD128E03D2FC8D1212DB4
:1000F000229520298216B1F003942AE0021631F0ED
:1001000021E0302D3A29D1D1FFBE1895002421E0FD
:10011000302D3A29CAD1139422E0312D3929C5D185
:10012000FFBE1895112421E0022E302D3A29BDD1B1
:1001300022E0312D3929B9D121E032E823163206E7
:1001400099F02AE82394221629F023E0322DADD12C
:10015000FFBE189530E8232E23E0A7D1339424E086
:10016000332DA3D1FFBE189521E8222E332423E09E
:10017000322D9BD124E0332D98D143942AE84216A6
:1001800029F025E0342D91D1FFBE189530E8432E9B
:1001900025E08BD1539426E0352D87D1FFBE1895ED
:1001A00000E800936E000AE00EBD07E20BBD00E11F
:1001B0000ABD00E409BF03E005BF00E40BBF0FE088
:1001C00007BB00E008BB01BB00E402BB00E002B9D2
:1001D00003E309B900E10AB906E003B929E03FEFFA
:1001E0007AD12AE03FE077D12BE037E074D12FEFCE
:1001F00030E071D12CE031E06ED1DD27CC27BB2778
:10020000AA27992780E87727662728E03AE04DD18A
:1002100027E03AE04AD126E03AE047D125E03AE843
:1002200044D124E03AE041D123E03AE83ED122E053
:100230003AE03BD121E03AE038D128E03AE01FD162
:1002400027E03AE01CD126E03AE019D125E03AE077
:1002500016D124E03AE013D123E03AE010D17894AB
:1002600006D14432E1F703D14734C9F700D1403514
:10027000B1F7FDD0423599F7FAD04D3481F7F7D078
:10028000433469F7F4D0F3D04C3249F34F704093C4
:100290006700EDD04F7040936600E9D04F704093F7
:1002A0006500E5D04F7040936400E1D04F704093FB
:1002B0006300DDD04F70406840936200D8D0D7D043
:1002C0004F7040936100D3D04F7040936000D3D003
:1002D000D2D0D1D0D0D0CFD0CED0CDD0CCD0C7D02E
:1002E0004F7040936900C3D04F7040936800BFD0F7
:1002F0004F7040936B005AE0772440FD752EB7D0C5
:100300004F70740E406840936A00B1D04F704093B4
:100310006D006624650E4A95E9F7A9D04F70640E0A
:10032000406840936C00F894F6E0E0E0E70D8490BC
:1003300042E0741629F4462D4C7F461509F4839447
:1003400050906D0040906C0030906B0020906A00DF
:100350001090690000906800D0916700C09166001D
:10036000B0916500A091640090916300809162005B
:10037000869901C077C040E8942EAA2445E0BD5F6D
:10038000B63010F0B65043954C0FD23009F44C5EA5
:10039000D13009F4465FDD27483138F44A5010F077
:1003A000D395FCCF465FC42F30C048514A5010F05F
:1003B000D395FCCF465FC42F212D2295202982168C
:1003C00041F003942AE0021609F01FC000241394A0
:1003D0001CC0112421E0022E2AE82394221631F0B9
:1003E00023E831E02216330629F00FC030E8232E2F
:1003F00033940BC031E8232E332443942AE8421669
:1004000009F003C030E8432E539428E032E04DD089
:1004100027E030E04AD026E0352D47D025E0342DC6
:1004200044D024E0332D41D023E0322D3ED022E0D1
:10043000312D39293AD021E0302D3A2936D028E023
:100440003D2F1DD027E03C2F1AD026E03B2F17D0A0
:1004500025E03A2F14D024E0392F11D023E0382F93
:100460000ED0FDCE40E8A42E992446E088CF5F9BB5
:10047000FECF4CB10895FBDF4C32E9F7089510E14F
:10048000C19808E027FD016008BB330F221F000060
:100490000000C19A000000001A9591F7C29A00006E
:1004A0000000C19800000000089510E1C19804E028
:1004B00027FD016008BB330F221F00000000C19A16
:1004C000000000001A9591F7C39A00000000C1983F
:1004D00000000000089510E1C198002727FD016089
:1004E00008BB330F221F00000000C19A000000006B
:1004F0001A9591F7C29AC39A00000000C1980000B3
:1005000000000895FF93EF93FF27FDBDFCBDE09130
:100510006E00F0E8EF27E0936E00753058F4EAB50E
:10052000FBB53196FBBDEABD70E060E0EF91FF9155
:10053000FFBE1895EAB5FBB53197FBBDEABD79E082
:0C05400069E0F1E0F8BFEF91FF915FCDA2
:0E06000031312831303130313130313031007C
:00000001FF
