:020000020000FC
:10000000CFC0FFB68BC20000FFB663956A3039F0EF
:1000100021E030916F0036273ED2FFBE1895309117
:100020006E0030936F00662721E0362734D2739537
:100030007A3039F022E030916F0037272CD2FFBEA2
:100040001895772722E030916F00372724D28395C7
:100050008A3831F023E0382F30681DD2FFBE189562
:1000600080E823E0382F306816D29395963029F037
:1000700024E0392F10D2FFBE1895992724E0392F9C
:100080000AD2A395AA3029F025E03A2F04D2FFBE68
:100090001895AA2725E03A2FFED1B395B63029F05E
:1000A00026E03B2FF8D1FFBE1895BB2726E03B2F5B
:1000B000F2D1C39522E0C430D20789F0CA3029F0CA
:1000C00027E03C2FE8D1FFBE1895CC2727E03C2F36
:1000D000E2D1D39528E03D2FDED1FFBE1895DD2774
:1000E000CC2727E03C2FD7D128E03D2FD4D1212D9C
:1000F000229520298216B1F003942AE0021631F0ED
:1001000021E0302D3A29DDD1FFBE1895002421E0F1
:10011000302D3A29D6D1139422E0312D3929D1D16D
:10012000FFBE1895112421E0022E302D3A29C9D1A5
:1001300022E0312D3929C5D121E032E823163206DB
:1001400099F02AE82394221629F023E0322DB9D120
:10015000FFBE189530E8232E23E0B3D1339424E07A
:10016000332DAFD1FFBE189521E8222E332423E092
:10017000322DA7D124E0332DA4D143942AE842168E
:1001800029F025E0342D9DD1FFBE189530E8432E8F
:1001900025E097D1539426E0352D93D1FFBE1895D5
:1001A00000270EBBE09A0DB307FF01BF000000E877
:1001B00000936E000AE00EBD07E20BBD00E10ABD30
:1001C00000E409BF03E005BF00E40BBF0FE007BB7D
:1001D00000E008BB01BB0ABB00E402BB01E00BBBB3
:1001E00000E002B903E309B900E10AB906E003B986
:1001F00029E03FEF7CD12AE03FE079D12BE037E0E6
:1002000076D12FEF30E073D12CE031E070D1DD27D3
:10021000CC27BB27AA27992780E87727662728E0DD
:100220003AE04FD127E03AE04CD126E03AE049D11C
:1002300025E03AE846D124E03AE043D123E03AE829
:1002400040D122E03AE03DD121E03AE03AD128E045
:100250003AE021D127E03AE01ED126E03AE01BD176
:1002600025E03AE018D124E03AE015D123E03AE065
:1002700012D1789408D14432E1F705D14734C9F757
:1002800002D14035B1F7FFD0423599F7FCD04D345B
:1002900081F7F9D0433469F7F6D0F5D04C3249F301
:1002A0004F7040936700EFD04F7040936600EBD0E3
:1002B0004F7040936500E7D04F7040936400E3D0E7
:1002C0004F7040936300DFD04F70406840936200EE
:1002D000DAD0D9D04F7040936100D5D04F704093A1
:1002E0006000D5D0D4D0D3D0D2D0D1D0D0D0CFD040
:1002F000CED0C9D04F7040936900C5D04F704093A5
:100300006800C1D04F7040936B005AE0772440FDE5
:10031000752EB9D04F70740E406840936A00B3D008
:100320004F7040936D006624650E4A95E9F7ABD097
:100330004F70640E406840936C00F894F6E0E0E083
:10034000E70D849042E0741629F4462D4C7F461543
:1003500009F4839450906D0040906C0030906B00D5
:1003600020906A001090690000906800D0916700AA
:10037000C0916600B0916500A09164009091630007
:1003800080916200C89B7AC0869901C077C040E81E
:10039000942EAA2445E0BD5FB63010F0B6504395C8
:1003A0004C0FD23009F44C5ED13009F4465FDD27A2
:1003B000483138F44A5010F0D395FCCF465FC42F33
:1003C00030C048514A5010F0D395FCCF465FC42F3F
:1003D000212D22952029821641F003942AE002164D
:1003E00009F01FC0002413941CC0112421E0022E28
:1003F0002AE82394221631F023E831E0221633064E
:1004000029F00FC030E8232E33940BC031E8232E9F
:10041000332443942AE8421609F003C030E8432EFF
:10042000539428E032E04DD027E030E04AD026E077
:10043000352D47D025E0342D44D024E0332D41D054
:1004400023E0322D3ED022E0312D39293AD021E06F
:10045000302D3A2936D028E03D2F1DD027E03C2F03
:100460001AD026E03B2F17D025E03A2F14D024E0F5
:10047000392F11D023E0382F0ED0FBCE40E8A42E28
:10048000992446E088CF5F9BFECF4CB10895FBDFF7
:100490004C32E9F7089510E1C19808E027FD0160AA
:1004A00008BB330F221F00000000C19A00000000AB
:1004B0001A9591F7C29A00000000C1980000000050
:1004C000089510E1C19804E027FD016008BB330FD7
:1004D000221F00000000C19A000000001A9591F749
:1004E000C39A00000000C19800000000089510E1C8
:1004F000C198002727FD016008BB330F221F0000B1
:100500000000C19A000000001A9591F7C29AC39AA0
:1005100000000000C198000000000895FF93EF93D1
:10052000FF27FDBDFCBDE0916E00F0E8EF27E093F2
:100530006E00753058F4EAB5FBB53196FBBDEABDE7
:1005400070E060E0EF91FF91FFBE1895EAB5FBB552
:100550003197FBBDEABD79E069E0F1E0F8BFEF91CA
:04056000FF9153CDE7
:0E06000031312831303130313130313031007C
:00000001FF
