:020000020000FC
:10000000CFC0FFB689C20000FFB663956A3039F0F1
:1000100021E030916F0036273CD2FFBE1895309119
:100020006E0030936F00662721E0362732D2739539
:100030007A3039F022E030916F0037272AD2FFBEA4
:100040001895772722E030916F00372722D28395C9
:100050008A3831F023E0382F30681BD2FFBE189564
:1000600080E823E0382F306814D29395963029F039
:1000700024E0392F0ED2FFBE1895992724E0392F9E
:1000800008D2A395AA3029F025E03A2F02D2FFBE6C
:100090001895AA2725E03A2FFCD1B395B63029F060
:1000A00026E03B2FF6D1FFBE1895BB2726E03B2F5D
:1000B000F0D1C39522E0C430D20789F0CA3029F0CC
:1000C00027E03C2FE6D1FFBE1895CC2727E03C2F38
:1000D000E0D1D39528E03D2FDCD1FFBE1895DD2778
:1000E000CC2727E03C2FD5D128E03D2FD2D1212DA0
:1000F000229520298216B1F003942AE0021631F0ED
:1001000021E0302D3A29DBD1FFBE1895002421E0F3
:10011000302D3A29D4D1139422E0312D3929CFD171
:10012000FFBE1895112421E0022E302D3A29C7D1A7
:1001300022E0312D3929C3D121E032E823163206DD
:1001400099F02AE82394221629F023E0322DB7D122
:10015000FFBE189530E8232E23E0B1D1339424E07C
:10016000332DADD1FFBE189521E8222E332423E094
:10017000322DA5D124E0332DA2D143942AE8421692
:1001800029F025E0342D9BD1FFBE189530E8432E91
:1001900025E095D1539426E0352D91D1FFBE1895D9
:1001A00000270EBBE09A0DB307FF01BF000000E877
:1001B00000936E000AE00EBD07E20BBD00E10ABD30
:1001C00000E409BF03E005BF00E40BBF0FE007BB7D
:1001D00000E008BB01BB0ABB00E402BB03E00BBBB1
:1001E00000E002B903E309B900E10AB906E003B986
:1001F00029E03FEF7AD12AE03FE077D12BE037E0EA
:1002000074D12FEF30E071D12CE031E06ED1DD27D9
:10021000CC27BB27AA27992780E87727662728E0DD
:100220003AE04DD127E03AE04AD126E03AE047D122
:1002300025E03AE844D124E03AE041D123E03AE82D
:100240003ED122E03AE03BD121E03AE038D128E04B
:100250003AE01FD127E03AE01CD126E03AE019D17C
:1002600025E03AE016D124E03AE013D123E03AE069
:1002700010D1789406D14432E1F703D14734C9F75D
:1002800000D1FFD04235A9F7FCD04D3491F7F9D019
:10029000433479F7F6D0F5D04C3259F34F70409390
:1002A0006700EFD04F7040936600EBD04F704093E3
:1002B0006500E7D04F7040936400E3D04F704093E7
:1002C0006300DFD04F70406840936200DAD0D9D02D
:1002D0004F7040936100D5D04F7040936000D5D0EF
:1002E000D4D0D3D0D2D0D1D0D0D0CFD0CED0C9D00E
:1002F0004F7040936900C5D04F7040936800C1D0E3
:100300004F7040936B005AE0772440FD752EB9D0B2
:100310004F70740E406840936A00B3D04F704093A2
:100320006D006624650E4A95E9F7ABD04F70640EF8
:10033000406840936C00F894F6E0E0E0E70D8490AC
:1003400042E0741629F4462D4C7F461509F4839437
:1003500050906D0040906C0030906B0020906A00CF
:100360001090690000906800D0916700C09166000D
:10037000B0916500A091640090916300809162004B
:10038000C99B7CC0C89B75C0869901C072C040E8FB
:10039000942EAA2449E04C0FD23009F44C5ED1309F
:1003A00009F4465FDD27483138F44A5010F0D39500
:1003B000FCCF465FC42F30C048514A5010F0D3954F
:1003C000FCCF465FC42F212D22952029821641F0B3
:1003D00003942AE0021609F01FC0002413941CC0E5
:1003E000112421E0022E2AE82394221631F023E87A
:1003F00031E02216330629F00FC030E8232E339463
:100400000BC031E8232E332443942AE8421609F026
:1004100003C030E8432E539428E032E050D027E068
:1004200030E04DD026E0352D4AD025E0342D47D0A0
:1004300024E0332D44D023E0322D41D022E0312D71
:1004400039293DD021E0302D3A2939D028E03D2FFF
:1004500020D027E03C2F1DD026E03B2F1AD025E0EE
:100460003A2F17D024E0392F14D023E0382F11D0A1
:1004700000CF40E8A42E99244AE08DCF9924AA24E5
:10048000CBCF5F9BFECF4CB10895FBDF4C32E9F739
:10049000089510E1C19808E027FD016008BB330F03
:1004A000221F00000000C19A000000001A9591F779
:1004B000C29A00000000C19800000000089510E1F9
:1004C000C19804E027FD016008BB330F221F000024
:1004D0000000C19A000000001A9591F7C39A00002D
:1004E0000000C19800000000089510E1C1980027A5
:1004F00027FD016008BB330F221F00000000C19AD6
:10050000000000001A9591F7C29AC39A00000000FB
:10051000C198000000000895FF93EF93FF27FDBDF1
:10052000FCBDE0916E00F0E8EF27E0936E007530BF
:1005300058F4EAB5FBB53196FBBDEABD70E060E06A
:10054000EF91FF91FFBE1895EAB5FBB53197FBBD62
:10055000EABD79E069E0F1E0F8BFEF91FF9155CD98
:0E06000031312831303130313130313031007C
:00000001FF
