:020000020000FC
:10000000CFC0FFB684C20000FFB663956A3039F0F6
:1000100021E030916F00362737D2FFBE189530911E
:100020006E0030936F00662721E036272DD273953E
:100030007A3039F022E030916F00372725D2FFBEA9
:100040001895772722E030916F0037271DD28395CE
:100050008A3831F023E0382F306816D2FFBE189569
:1000600080E823E0382F30680FD29395963029F03E
:1000700024E0392F09D2FFBE1895992724E0392FA3
:1000800003D2A395AA3029F025E03A2FFDD1FFBE77
:100090001895AA2725E03A2FF7D1B395B63029F065
:1000A00026E03B2FF1D1FFBE1895BB2726E03B2F62
:1000B000EBD1C39522E0C430D20789F0CA3029F0D1
:1000C00027E03C2FE1D1FFBE1895CC2727E03C2F3D
:1000D000DBD1D39528E03D2FD7D1FFBE1895DD2782
:1000E000CC2727E03C2FD0D128E03D2FCDD1212DAA
:1000F000229520298216B1F003942AE0021631F0ED
:1001000021E0302D3A29D6D1FFBE1895002421E0F8
:10011000302D3A29CFD1139422E0312D3929CAD17B
:10012000FFBE1895112421E0022E302D3A29C2D1AC
:1001300022E0312D3929BED121E032E823163206E2
:1001400099F02AE82394221629F023E0322DB2D127
:10015000FFBE189530E8232E23E0ACD1339424E081
:10016000332DA8D1FFBE189521E8222E332423E099
:10017000322DA0D124E0332D9DD143942AE842169C
:1001800029F025E0342D96D1FFBE189530E8432E96
:1001900025E090D1539426E0352D8CD1FFBE1895E3
:1001A00000270EBBE09A0DB307FF01BF000000E877
:1001B00000936E000AE00EBD07E20BBD00E10ABD30
:1001C00000E409BF03E005BF00E40BBF0FE007BB7D
:1001D00000E008BB01BB0ABB00E402BB01E00BBBB3
:1001E00000E002B903E309B900E10AB906E003B986
:1001F00029E03FEF75D12AE03FE072D12BE037E0F4
:100200006FD12FEF30E06CD12CE031E069D1DD27E8
:10021000CC27BB27AA27992780E87727662728E0DD
:100220003AE048D127E03AE045D126E03AE042D131
:1002300025E03AE83FD124E03AE03CD123E03AE837
:1002400039D122E03AE036D121E03AE033D128E05A
:100250003AE01AD127E03AE017D126E03AE014D18B
:1002600025E03AE011D124E03AE00ED123E03AE073
:100270000BD1789401D14432E1F7FED04734C9F76D
:10028000FBD0FAD04235A9F7F7D04D3491F7F4D02E
:10029000433479F7F1D0F0D04C3259F34F7040939A
:1002A0006700EAD04F7040936600E6D04F704093ED
:1002B0006500E2D04F7040936400DED04F704093F1
:1002C0006300DAD04F70406840936200D5D0D4D03C
:1002D0004F7040936100D0D04F7040936000D0D0F9
:1002E000CFD0CED0CDD0CCD0CBD0CAD0C9D0C4D036
:1002F0004F7040936900C0D04F7040936800BCD0ED
:100300004F7040936B005AE0772440FD752EB4D0B7
:100310004F70740E406840936A00AED04F704093A7
:100320006D006624650E4A95E9F7A6D04F70640EFD
:10033000406840936C00F894F6E0E0E0E70D8490AC
:1003400042E0741629F4462D4C7F461509F4839437
:1003500050906D0040906C0030906B0020906A00CF
:100360001090690000906800D0916700C09166000D
:10037000B0916500A091640090916300809162004B
:10038000C89B75C0869901C072C040E8942EAA240B
:1003900049E04C0FD23009F44C5ED13009F4465F8D
:1003A000DD27483138F44A5010F0D395FCCF465F32
:1003B000C42F30C048514A5010F0D395FCCF465F4F
:1003C000C42F212D22952029821641F003942AE082
:1003D000021609F01FC0002413941CC0112421E050
:1003E000022E2AE82394221631F023E831E0221667
:1003F000330629F00FC030E8232E33940BC031E8C8
:10040000232E332443942AE8421609F003C030E82F
:10041000432E539428E032E04DD027E030E04AD01C
:1004200026E0352D47D025E0342D44D024E0332D6F
:1004300041D023E0322D3ED022E0312D39293AD06F
:1004400021E0302D3A2936D028E03D2F1DD027E07D
:100450003C2F1AD026E03B2F17D025E03A2F14D09E
:1004600024E0392F11D023E0382F0ED002CF40E8FE
:10047000A42E99244AE08DCF5F9BFECF4CB1089506
:10048000FBDF4C32E9F7089510E1C19808E027FD41
:10049000016008BB330F221F00000000C19A00005A
:1004A00000001A9591F7C29A00000000C198000060
:1004B0000000089510E1C19804E027FD016008BB29
:1004C000330F221F00000000C19A000000001A959F
:1004D00091F7C39A00000000C19800000000089541
:1004E00010E1C198002727FD016008BB330F221FD0
:1004F00000000000C19A000000001A9591F7C29A0E
:10050000C39A00000000C198000000000895FF9306
:10051000EF93FF27FDBDFCBDE0916E00F0E8EF27F3
:10052000E0936E00753058F4EAB5FBB53196FBBD2B
:10053000EABD70E060E0EF91FF91FFBE1895EAB56B
:10054000FBB53197FBBDEABD79E069E0F1E0F8BFAA
:06055000EF91FF915ACD6E
:0E06000031312831303130313130313031007C
:00000001FF
