:020000020000FC
:10000000CFC0FFB693C20000FFB663956A3039F0E7
:1000100021E030916F00362746D2FFBE189530910F
:100020006E0030936F00662721E036273CD273952F
:100030007A3039F022E030916F00372734D2FFBE9A
:100040001895772722E030916F0037272CD28395BF
:100050008A3831F023E0382F306825D2FFBE18955A
:1000600080E823E0382F30681ED29395963029F02F
:1000700024E0392F18D2FFBE1895992724E0392F94
:1000800012D2A395AA3029F025E03A2F0CD2FFBE58
:100090001895AA2725E03A2F06D2B395B63029F055
:1000A00026E03B2F00D2FFBE1895BB2726E03B2F52
:1000B000FAD1C39522E0C430D20789F0CA3029F0C2
:1000C00027E03C2FF0D1FFBE1895CC2727E03C2F2E
:1000D000EAD1D39528E03D2FE6D1FFBE1895DD2764
:1000E000CC2727E03C2FDFD128E03D2FDCD1212D8C
:1000F000229520298216B1F003942AE0021631F0ED
:1001000021E0302D3A29E5D1FFBE1895002421E0E9
:10011000302D3A29DED1139422E0312D3929D9D15D
:10012000FFBE1895112421E0022E302D3A29D1D19D
:1001300022E0312D3929CDD121E032E823163206D3
:1001400099F02AE82394221629F023E0322DC1D118
:10015000FFBE189530E8232E23E0BBD1339424E072
:10016000332DB7D1FFBE189521E8222E332423E08A
:10017000322DAFD124E0332DACD143942AE842167E
:1001800029F025E0342DA5D1FFBE189530E8432E87
:1001900025E09FD1539426E0352D9BD1FFBE1895C5
:1001A00000270EBBE09A0DB307FF01BF000000E877
:1001B00000936E000AE00EBD07E20BBD00E10ABD30
:1001C00000E409BF03E005BF00E40BBF0FE007BB7D
:1001D00000E008BB01BB0ABB00E402BB03E00BBBB1
:1001E00000E002B903E309B900E10AB906E003B986
:1001F00029E03FEF84D12AE03FE081D12BE037E0D6
:100200007ED12FEF30E07BD12CE031E078D1DD27BB
:10021000CC27BB27AA27992780E87727662728E0DD
:100220003AE057D127E03AE054D126E03AE051D104
:1002300025E03AE84ED124E03AE04BD123E03AE819
:1002400048D122E03AE045D121E03AE042D128E02D
:100250003AE029D127E03AE026D126E03AE023D15E
:1002600025E03AE020D124E03AE01DD123E03AE055
:100270001AD1789410D14432E1F70DD14734C9F73F
:100280000AD109D14235A9F706D14D3491F703D1EE
:10029000433479F700D1FFD04C3259F34F7040937B
:1002A0006700F9D04F7040936600F5D04F704093CF
:1002B0006500F1D04F7040936400EDD04F704093D3
:1002C0006300E9D04F70406840936200E4D0E3D00F
:1002D0004F7040936100DFD04F7040936000DFD0DB
:1002E000DED0DDD0DCD0DBD0DAD0D9D0D8D0D3D0BE
:1002F0004F7040936900CFD04F7040936800CBD0CF
:100300004F7040936B005AE0772440FD752EC3D0A8
:100310004F70740E406840936A00BDD04F70409398
:100320006D006624650E4A95E9F7B5D04F70640EEE
:10033000406840936C00F894F6E0E0E0E70D8490AC
:1003400042E0741629F4462D4C7F461509F4839437
:1003500050906D0040906C0030906B0020906A00CF
:100360001090690000906800D0916700C09166000D
:10037000B0916500A091640090916300809162004B
:10038000C99B86C0C89B7FC0869901C07CC040E8DD
:10039000942EAA2445E0AB5FAA3010F0AA50BF5FAC
:1003A000BC5FB63010F0B65043954C0FD23009F414
:1003B0004C5ED13009F4465FDD27483138F44A50AD
:1003C00010F0D395FCCF465FC42F30C048514A503F
:1003D00010F0D395FCCF465FC42F212D2295202904
:1003E000821641F003942AE0021609F01FC000248F
:1003F00013941CC0112421E0022E2AE82394221613
:1004000031F023E831E02216330629F00FC030E83E
:10041000232E33940BC031E8232E332443942AE84F
:10042000421609F003C030E8432E539428E032E02E
:1004300050D027E030E04DD026E0352D4AD025E0E1
:10044000342D47D024E0332D44D023E0322D41D049
:1004500022E0312D39293DD021E0302D3A2939D003
:1004600028E03D2F20D027E03C2F1DD026E03B2F59
:100470001AD025E03A2F17D024E0392F14D023E0EA
:10048000382F11D0F6CE40E8A42E992446E083CF31
:100490009924AA24CBCF5F9BFECF4CB10895FBDFFC
:1004A0004C32E9F7089510E1C19808E027FD01609A
:1004B00008BB330F221F00000000C19A000000009B
:1004C0001A9591F7C29A00000000C1980000000040
:1004D000089510E1C19804E027FD016008BB330FC7
:1004E000221F00000000C19A000000001A9591F739
:1004F000C39A00000000C19800000000089510E1B8
:10050000C198002727FD016008BB330F221F0000A0
:100510000000C19A000000001A9591F7C29AC39A90
:1005200000000000C198000000000895FF93EF93C1
:10053000FF27FDBDFCBDE0916E00F0E8EF27E093E2
:100540006E00753058F4EAB5FBB53196FBBDEABDD7
:1005500070E060E0EF91FF91FFBE1895EAB5FBB542
:100560003197FBBDEABD79E069E0F1E0F8BFEF91BA
:04057000FF914BCDDF
:0E06000031312831303130313130313031007C
:00000001FF
