:020000020000FC
:10000000CFC0FFB690C20000FFB663956A3039F0EA
:1000100021E030916F00362743D2FFBE1895309112
:100020006E0030936F00662721E0362739D2739532
:100030007A3039F022E030916F00372731D2FFBE9D
:100040001895772722E030916F00372729D28395C2
:100050008A3831F023E0382F306822D2FFBE18955D
:1000600080E823E0382F30681BD29395963029F032
:1000700024E0392F15D2FFBE1895992724E0392F97
:100080000FD2A395AA3029F025E03A2F09D2FFBE5E
:100090001895AA2725E03A2F03D2B395B63029F058
:1000A00026E03B2FFDD1FFBE1895BB2726E03B2F56
:1000B000F7D1C39522E0C430D20789F0CA3029F0C5
:1000C00027E03C2FEDD1FFBE1895CC2727E03C2F31
:1000D000E7D1D39528E03D2FE3D1FFBE1895DD276A
:1000E000CC2727E03C2FDCD128E03D2FD9D1212D92
:1000F000229520298216B1F003942AE0021631F0ED
:1001000021E0302D3A29E2D1FFBE1895002421E0EC
:10011000302D3A29DBD1139422E0312D3929D6D163
:10012000FFBE1895112421E0022E302D3A29CED1A0
:1001300022E0312D3929CAD121E032E823163206D6
:1001400099F02AE82394221629F023E0322DBED11B
:10015000FFBE189530E8232E23E0B8D1339424E075
:10016000332DB4D1FFBE189521E8222E332423E08D
:10017000322DACD124E0332DA9D143942AE8421684
:1001800029F025E0342DA2D1FFBE189530E8432E8A
:1001900025E09CD1539426E0352D98D1FFBE1895CB
:1001A00000270EBBE09A0DB307FF01BF000000E877
:1001B00000936E000AE00EBD07E20BBD00E10ABD30
:1001C00000E409BF03E005BF00E40BBF0FE007BB7D
:1001D00000E008BB01BB0ABB00E402BB01E00BBBB3
:1001E00000E002B903E309B900E10AB906E003B986
:1001F00029E03FEF81D12AE03FE07ED12BE037E0DC
:100200007BD12FEF30E078D12CE031E075D1DD27C4
:10021000CC27BB27AA27992780E87727662728E0DD
:100220003AE054D127E03AE051D126E03AE04ED10D
:1002300025E03AE84BD124E03AE048D123E03AE81F
:1002400045D122E03AE042D121E03AE03FD128E036
:100250003AE026D127E03AE023D126E03AE020D167
:1002600025E03AE01DD124E03AE01AD123E03AE05B
:1002700017D178940DD14432E1F70AD14734C9F748
:1002800007D14035B1F704D1423599F701D14D344A
:1002900081F7FED0433469F7FBD0FAD04C3249F3F2
:1002A0004F7040936700F4D04F7040936600F0D0D9
:1002B0004F7040936500ECD04F7040936400E8D0DD
:1002C0004F7040936300E4D04F70406840936200E9
:1002D000DFD0DED04F7040936100DAD04F70409392
:1002E0006000DAD0D9D0D8D0D7D0D6D0D5D0D4D01D
:1002F000D3D0CED04F7040936900CAD04F70409396
:100300006800C6D04F7040936B005AE0772440FDE0
:10031000752EBED04F70740E406840936A00B8D0FE
:100320004F7040936D006624650E4A95E9F7B0D092
:100330004F70640E406840936C00F894F6E0E0E083
:10034000E70D849042E0741629F4462D4C7F461543
:1003500009F4839450906D0040906C0030906B00D5
:1003600020906A001090690000906800D0916700AA
:10037000C0916600B0916500A09164009091630007
:1003800080916200C89B7FC0869901C07CC040E814
:10039000942EAA2445E0AB5FAA3010F0AA50BF5FAC
:1003A000BC5FB63010F0B65043954C0FD23009F414
:1003B0004C5ED13009F4465FDD27483138F44A50AD
:1003C00010F0D395FCCF465FC42F30C048514A503F
:1003D00010F0D395FCCF465FC42F212D2295202904
:1003E000821641F003942AE0021609F01FC000248F
:1003F00013941CC0112421E0022E2AE82394221613
:1004000031F023E831E02216330629F00FC030E83E
:10041000232E33940BC031E8232E332443942AE84F
:10042000421609F003C030E8432E539428E032E02E
:100430004DD027E030E04AD026E0352D47D025E0EA
:10044000342D44D024E0332D41D023E0322D3ED052
:1004500022E0312D39293AD021E0302D3A2936D009
:1004600028E03D2F1DD027E03C2F1AD026E03B2F5F
:1004700017D025E03A2F14D024E0392F11D023E0F3
:10048000382F0ED0F6CE40E8A42E992446E083CF34
:100490005F9BFECF4CB10895FBDF4C32E9F7089526
:1004A00010E1C19808E027FD016008BB330F221F4F
:1004B00000000000C19A000000001A9591F7C29A4E
:1004C00000000000C19800000000089510E1C198EC
:1004D00004E027FD016008BB330F221F000000006D
:1004E000C19A000000001A9591F7C39A000000001D
:1004F000C19800000000089510E1C198002727FD71
:10050000016008BB330F221F00000000C19A0000E9
:1005100000001A9591F7C29AC39A00000000C19892
:10052000000000000895FF93EF93FF27FDBDFCBD81
:10053000E0916E00F0E8EF27E0936E00753058F41C
:10054000EAB5FBB53196FBBDEABD70E060E0EF9126
:10055000FF91FFBE1895EAB5FBB53197FBBDEABD2B
:0E05600079E069E0F1E0F8BFEF91FF914ECD38
:0E06000031312831303130313130313031007C
:00000001FF
