:020000020000FC
:10000000CFC0FFB682C20000FFB663956A3039F0F8
:1000100021E030916F00362735D2FFBE1895309120
:100020006E0030936F00662721E036272BD2739540
:100030007A3039F022E030916F00372723D2FFBEAB
:100040001895772722E030916F0037271BD28395D0
:100050008A3831F023E0382F306814D2FFBE18956B
:1000600080E823E0382F30680DD29395963029F040
:1000700024E0392F07D2FFBE1895992724E0392FA5
:1000800001D2A395AA3029F025E03A2FFBD1FFBE7B
:100090001895AA2725E03A2FF5D1B395B63029F067
:1000A00026E03B2FEFD1FFBE1895BB2726E03B2F64
:1000B000E9D1C39522E0C430D20789F0CA3029F0D3
:1000C00027E03C2FDFD1FFBE1895CC2727E03C2F3F
:1000D000D9D1D39528E03D2FD5D1FFBE1895DD2786
:1000E000CC2727E03C2FCED128E03D2FCBD1212DAE
:1000F000229520298216B1F003942AE0021631F0ED
:1001000021E0302D3A29D4D1FFBE1895002421E0FA
:10011000302D3A29CDD1139422E0312D3929C8D17F
:10012000FFBE1895112421E0022E302D3A29C0D1AE
:1001300022E0312D3929BCD121E032E823163206E4
:1001400099F02AE82394221629F023E0322DB0D129
:10015000FFBE189530E8232E23E0AAD1339424E083
:10016000332DA6D1FFBE189521E8222E332423E09B
:10017000322D9ED124E0332D9BD143942AE84216A0
:1001800029F025E0342D94D1FFBE189530E8432E98
:1001900025E08ED1539426E0352D8AD1FFBE1895E7
:1001A00000E800936E000AE00EBD07E20BBD00E11F
:1001B0000ABD00E409BF03E005BF00E40BBF0FE088
:1001C00007BB00E008BB01BB00E402BB00E002B9D2
:1001D00003E309B900E10AB906E003B929E03FEFFA
:1001E0007DD12AE03FE07AD12BE037E077D12FEFC5
:1001F00030E074D12CE031E071D1DD27CC27BB2772
:10020000AA27992780E87727662728E03AE050D187
:1002100027E03AE04DD126E03AE04AD125E03AE83D
:1002200047D124E03AE044D123E03AE841D122E04A
:100230003AE03ED121E03AE03BD128E03AE022D159
:1002400027E03AE01FD126E03AE01CD125E03AE071
:1002500019D124E03AE016D123E03AE013D17894A2
:1002600009D14432E1F706D14734C9F703D140350B
:10027000B1F700D1423599F7FDD04D3481F7FAD06E
:10028000433469F7F7D0F6D04C3249F34F704093BE
:100290006700F0D04F7040936600ECD04F704093F1
:1002A0006500E8D04F7040936400E4D04F704093F5
:1002B0006300E0D04F70406840936200DBD0DAD03A
:1002C0004F7040936100D6D04F7040936000D6D0FD
:1002D000D5D0D4D0D3D0D2D0D1D0D0D0CFD0CAD016
:1002E0004F7040936900C6D04F7040936800C2D0F1
:1002F0004F7040936B005AE0772440FD752EBAD0C2
:100300004F70740E406840936A00B4D04F704093B1
:100310006D006624650E4A95E9F7ACD04F70640E07
:10032000406840936C00F894F6E0E0E0E70D8490BC
:10033000EA95B490462D4C7F461539F442E0741688
:1003400009F48394E23009F4B39450906D00409026
:100350006C0030906B0020906A0010906900009053
:100360006800D0916700C0916600B0916500A091CF
:1003700064009091630080916200869901C075C00D
:1003800040E8942EAA244CEF4C0FD23009F44C5E76
:10039000D13009F4465FDD2744233AF04A5010F08B
:1003A000D395FCCF465FC42F33C0485E4A5010F04F
:1003B000D395FCCF465FC42F0A9411F022F028C0D9
:1003C000112029F025C01A9429E0022E21C02FE027
:1003D0000B2C02221B2C1294122240E824262A9471
:1003E00019F032F0242614C0332031F0242610C036
:1003F000332429E8222E0CC022E8222E21E0322EBE
:1004000044264A9410F0442603C029E8422E5A9408
:1004100028E032E04DD027E030E04AD026E0352D0C
:1004200047D025E0342D44D024E0332D41D023E0C3
:10043000322D3ED022E0312D39293AD021E0302D25
:100440003A2936D028E03D2F1DD027E03C2F1AD086
:1004500026E03B2F17D025E03A2F14D024E0392F87
:1004600011D023E0382F0ED0FACE40E8A42E9924E4
:100470004DEF8ACF5F9BFECF4CB10895FBDF4C322E
:10048000E9F7089510E1C19808E027FD016008BB75
:10049000330F221F00000000C19A000000001A95CF
:1004A00091F7C29A00000000C19800000000089572
:1004B00010E1C19804E027FD016008BB330F221F43
:1004C00000000000C19A000000001A9591F7C39A3D
:1004D00000000000C19800000000089510E1C198DC
:1004E000002727FD016008BB330F221F000000001A
:1004F000C19A000000001A9591F7C29AC39A0000B1
:100500000000C198000000000895FF93EF93FF27BB
:10051000FDBDFCBDE0916E00F0E8EF27E0936E00BA
:10052000753058F4EAB5FBB53196FBBDEABD70E015
:1005300060E0EF91FF91FFBE1895EAB5FBB53197EA
:10054000FBBDEABD79E069E0F1E0F8BFEF91FF9112
:020550005CCD80
:0E06000031312831303130313130313031007C
:00000001FF
