:020000020000FC
:10000000CFC0FFB68FC20000FFB663956A3039F0EB
:1000100021E030916F00362742D2FFBE1895309113
:100020006E0030936F00662721E0362738D2739533
:100030007A3039F022E030916F00372730D2FFBE9E
:100040001895772722E030916F00372728D28395C3
:100050008A3831F023E0382F306821D2FFBE18955E
:1000600080E823E0382F30681AD29395963029F033
:1000700024E0392F14D2FFBE1895992724E0392F98
:100080000ED2A395AA3029F025E03A2F08D2FFBE60
:100090001895AA2725E03A2F02D2B395B63029F059
:1000A00026E03B2FFCD1FFBE1895BB2726E03B2F57
:1000B000F6D1C39522E0C430D20789F0CA3029F0C6
:1000C00027E03C2FECD1FFBE1895CC2727E03C2F32
:1000D000E6D1D39528E03D2FE2D1FFBE1895DD276C
:1000E000CC2727E03C2FDBD128E03D2FD8D1212D94
:1000F000229520298216B1F003942AE0021631F0ED
:1001000021E0302D3A29E1D1FFBE1895002421E0ED
:10011000302D3A29DAD1139422E0312D3929D5D165
:10012000FFBE1895112421E0022E302D3A29CDD1A1
:1001300022E0312D3929C9D121E032E823163206D7
:1001400099F02AE82394221629F023E0322DBDD11C
:10015000FFBE189530E8232E23E0B7D1339424E076
:10016000332DB3D1FFBE189521E8222E332423E08E
:10017000322DABD124E0332DA8D143942AE8421686
:1001800029F025E0342DA1D1FFBE189530E8432E8B
:1001900025E09BD1539426E0352D97D1FFBE1895CD
:1001A00000270EBBE09A0DB307FF01BF000000E877
:1001B00000936E000AE00EBD07E20BBD00E10ABD30
:1001C00000E409BF03E005BF00E40BBF0FE007BB7D
:1001D00000E008BB01BB0ABB0AE402BB00E002B9B5
:1001E00003E309B900E10AB906E003B929E03FEFEA
:1001F00082D12AE03FE07FD12BE037E07CD12FEFA6
:1002000030E079D12CE031E076D1DD27CC27BB2757
:10021000AA27992780E87727662728E03AE055D172
:1002200027E03AE052D126E03AE04FD125E03AE823
:100230004CD124E03AE049D123E03AE846D122E02B
:100240003AE043D121E03AE040D128E03AE027D13A
:1002500027E03AE024D126E03AE021D125E03AE057
:100260001ED124E03AE01BD123E03AE018D1789483
:100270000ED14432E1F70BD14734C9F708D107D189
:100280004235A9F704D14D3491F701D1433479F7C0
:10029000FED0FDD04C3259F34F7040936700F7D039
:1002A0004F7040936600F3D04F7040936500EFD0DD
:1002B0004F7040936400EBD04F7040936300E7D0E1
:1002C0004F70406840936200E2D0E1D04F7040939D
:1002D0006100DDD04F7040936000DDD0DCD0DBD01A
:1002E000DAD0D9D0D8D0D7D0D6D0D1D04F70409393
:1002F0006900CDD04F7040936800C9D04F704093D3
:100300006B005AE0772440FD752EC1D04F70740EFB
:10031000406840936A00BBD04F7040936D006624E4
:10032000650E4A95E9F7B3D04F70640E406840936C
:100330006C00F894F6E0E0E0E70D8490EA95B49064
:10034000462D4C7F461539F442E0741609F4839427
:10035000E23009F4B39450906D0040906C003090FE
:100360006B0020906A001090690000906800D091A6
:100370006700C0916600B0916500A0916400909103
:10038000630080916200819B7EC0839B78C08699C8
:1003900001C075C040E8942EAA2446EF4C0FD2301D
:1003A00009F44C5ED13009F4465FDD2744233AF06E
:1003B0004A5010F0D395FCCF465FC42F33C0485E3F
:1003C0004A5010F0D395FCCF465FC42F0A9411F029
:1003D00022F028C0112029F025C01A9429E0022E0D
:1003E00021C02FE00B2C02221B2C1294122240E879
:1003F00024262A9419F032F0242614C0332031F038
:10040000242610C0332429E8222E0CC022E8222EF4
:1004100021E0322E442619F04A94442603C029E8EC
:10042000422E5A9428E032E050D027E030E04DD000
:1004300026E0352D4AD025E0342D47D024E0332D59
:1004400044D023E0322D41D022E0312D39293DD056
:1004500021E0302D3A2939D028E03D2F20D027E067
:100460003C2F1DD026E03B2F1AD025E03A2F17D085
:1004700024E0392F14D023E0382F11D0F8CE99245E
:10048000AA2447EF8BCF40E8A42E9924CBCF5F9BC3
:10049000FECF4CB10895FBDF4C32E9F7089510E12F
:1004A000C19808E027FD016008BB330F221F000040
:1004B0000000C19A000000001A9591F7C29A00004E
:1004C0000000C19800000000089510E1C19804E008
:1004D00027FD016008BB330F221F00000000C19AF6
:1004E000000000001A9591F7C39A00000000C1981F
:1004F00000000000089510E1C198002727FD016069
:1005000008BB330F221F00000000C19A000000004A
:100510001A9591F7C29AC39A00000000C198000092
:1005200000000895FF93EF93FF27FDBDFCBDE09110
:100530006E00F0E8EF27E0936E00753058F4EAB5EE
:10054000FBB53196FBBDEABD70E060E0EF91FF9135
:10055000FFBE1895EAB5FBB53197FBBDEABD79E062
:0C05600069E0F1E0F8BFEF91FF914FCD92
:0E06000031312831303130313130313031007C
:00000001FF
