:020000020000FC
:10000000CFC0FFB604C30000FFB663956A3039F075
:1000100021E030916F0036274AD2FFBE189530910B
:100020006E0030936F00662721E0362740D273952B
:100030007A3039F022E030916F00372738D2FFBE96
:100040001895772722E030916F00372730D28395BB
:100050008A3831F023E0382F306829D2FFBE189556
:1000600080E823E0382F306822D29395963029F02B
:1000700024E0392F1CD2FFBE1895992724E0392F90
:1000800016D2A395AA3029F025E03A2F10D2FFBE50
:100090001895AA2725E03A2F0AD2B395B63029F051
:1000A00026E03B2F04D2FFBE1895BB2726E03B2F4E
:1000B000FED1C39522E0C430D20789F0CA3029F0BE
:1000C00027E03C2FF4D1FFBE1895CC2727E03C2F2A
:1000D000EED1D39528E03D2FEAD1FFBE1895DD275C
:1000E000CC2727E03C2FE3D128E03D2FE0D1212D84
:1000F000229520298216B1F003942AE0021631F0ED
:1001000021E0302D3A29E9D1FFBE1895002421E0E5
:10011000302D3A29E2D1139422E0312D3929DDD155
:10012000FFBE1895112421E0022E302D3A29D5D199
:1001300022E0312D3929D1D121E032E823163206CF
:1001400099F02AE82394221629F023E0322DC5D114
:10015000FFBE189530E8232E23E0BFD1339424E06E
:10016000332DBBD1FFBE189521E8222E332423E086
:10017000322DB3D124E0332DB0D143942AE8421676
:1001800029F025E0342DA9D1FFBE189530E8432E83
:1001900025E0A3D1539426E0352D9FD1FFBE1895BD
:1001A00000270EBBE09A0DB307FF01BF000000E877
:1001B00000936E0000E0009370000AE00EBD07E2BD
:1001C0000BBD00E10ABD00E409BF03E005BF00E488
:1001D0000BBF0FE007BB00E008BB01BB0ABB0AE690
:1001E00002BB00E002B903E309B900E10AB906E085
:1001F00003B929E03FEF87D12AE03FE084D12BE02B
:1002000037E081D12FEF30E0859B33957CD12CE016
:1002100031E079D1DD27CC27BB27AA27992780E8B1
:100220007727662728E03AE058D127E03AE055D111
:1002300026E03AE052D125E03AE84FD124E03AE016
:100240004CD123E03AE849D122E03AE046D121E01E
:100250003AE043D128E03AE02AD127E03AE027D13A
:1002600026E03AE024D125E03AE021D124E03AE04A
:100270001ED123E03AE01BD1789411D14432E1F74A
:100280000ED14734C9F70BD10AD14235A9F707D1AE
:100290004D3491F704D1433479F701D100D14C3278
:1002A00059F34F7040936700FAD04F704093660047
:1002B000F6D04F7040936500F2D04F7040936400C9
:1002C000EED04F7040936300EAD04F704068409387
:1002D0006200E5D0E4D04F7040936100E0D04F70F1
:1002E00040936000E0D0DBD0413419F450E85093E3
:1002F0007000D9D0D8D0D7D0D6D0D5D0D4D0D3D004
:10030000CED04F7040936900CAD04F7040936800C0
:10031000C6D04F7040936B005AE0772440FD752E95
:10032000BED04F70740E406840936A00B8D04F70D2
:1003300040936D006624650E4A95E9F7B0D04F7082
:10034000640E406840936C00F894F6E0E0E0E70D3E
:10035000849042E0741629F4462D4C7F461509F42A
:10036000839450906D0040906C0030906B00209012
:100370006A001090690000906800D0916700C091F9
:100380006600B0916500A091640090916300809137
:100390006200819B81C0839B7AC0869901C077C02F
:1003A00040E8942EAA2445E0BD5FB63010F0B65068
:1003B00043954C0FD23009F44C5ED13009F4465FBE
:1003C000DD27483138F44A5010F0D395FCCF465F12
:1003D000C42F30C048514A5010F0D395FCCF465F2F
:1003E000C42F212D22952029821641F003942AE062
:1003F000021609F01FC0002413941CC0112421E030
:10040000022E2AE82394221631F023E831E0221646
:10041000330629F00FC030E8232E33940BC031E8A7
:10042000232E332443942AE8421609F003C030E80F
:10043000432E539428E032E050D027E030E04DD0F6
:1004400026E0352D4AD025E0342D47D024E0332D49
:1004500044D023E0322D41D022E0312D39293DD046
:1004600021E0302D3A2939D028E03D2F20D027E057
:100470003C2F1DD026E03B2F1AD025E03A2F17D075
:1004800024E0392F14D023E0382F11D0F5CE40E8E6
:10049000A42E992446E088CF9924AA24CBCF5F9B31
:1004A000FECF4CB10895FBDF4C32E9F7089510E11F
:1004B000C19808E027FD016008BB330F221F000030
:1004C0000000C19A000000001A9591F7C29A00003E
:1004D0000000C19800000000089510E1C19804E0F8
:1004E00027FD016008BB330F221F00000000C19AE6
:1004F000000000001A9591F7C39A00000000C1980F
:1005000000000000089510E1C198002727FD016058
:1005100008BB330F221F00000000C19A000000003A
:100520001A9591F7C29AC39A00000000C198000082
:04053000000008952A
:100600003131283130313031313031303100FF93E8
:10061000EF93FF27FDBDFCBDE0916E00F0917000EF
:10062000EF27E0936E00753058F4EAB5FBB53196CC
:10063000FBBDEABD70E060E0EF91FF91FFBE189551
:10064000EAB5FBB53197FBBDEABD79E069E0F1E0C1
:08065000F8BFEF91FF91D9CC36
:00000001FF
