:020000020000FC
:10000000CFC0FFB68CC20000FFB663956A3039F0EE
:1000100021E030916F0036273FD2FFBE1895309116
:100020006E0030936F00662721E0362735D2739536
:100030007A3039F022E030916F0037272DD2FFBEA1
:100040001895772722E030916F00372725D28395C6
:100050008A3831F023E0382F30681ED2FFBE189561
:1000600080E823E0382F306817D29395963029F036
:1000700024E0392F11D2FFBE1895992724E0392F9B
:100080000BD2A395AA3029F025E03A2F05D2FFBE66
:100090001895AA2725E03A2FFFD1B395B63029F05D
:1000A00026E03B2FF9D1FFBE1895BB2726E03B2F5A
:1000B000F3D1C39522E0C430D20789F0CA3029F0C9
:1000C00027E03C2FE9D1FFBE1895CC2727E03C2F35
:1000D000E3D1D39528E03D2FDFD1FFBE1895DD2772
:1000E000CC2727E03C2FD8D128E03D2FD5D1212D9A
:1000F000229520298216B1F003942AE0021631F0ED
:1001000021E0302D3A29DED1FFBE1895002421E0F0
:10011000302D3A29D7D1139422E0312D3929D2D16B
:10012000FFBE1895112421E0022E302D3A29CAD1A4
:1001300022E0312D3929C6D121E032E823163206DA
:1001400099F02AE82394221629F023E0322DBAD11F
:10015000FFBE189530E8232E23E0B4D1339424E079
:10016000332DB0D1FFBE189521E8222E332423E091
:10017000322DA8D124E0332DA5D143942AE842168C
:1001800029F025E0342D9ED1FFBE189530E8432E8E
:1001900025E098D1539426E0352D94D1FFBE1895D3
:1001A00000270EBBE09A0DB307FF01BF000000E877
:1001B00000936E000AE00EBD07E20BBD00E10ABD30
:1001C00000E409BF03E005BF00E40BBF0FE007BB7D
:1001D00000E008BB01BB0ABB0AE402BB00E002B9B5
:1001E00003E309B900E10AB906E003B929E03FEFEA
:1001F0007FD12AE03FE07CD12BE037E079D12FEFAF
:1002000030E076D12CE031E073D1DD27CC27BB275D
:10021000AA27992780E87727662728E03AE052D175
:1002200027E03AE04FD126E03AE04CD125E03AE829
:1002300049D124E03AE046D123E03AE843D122E034
:100240003AE040D121E03AE03DD128E03AE024D143
:1002500027E03AE021D126E03AE01ED125E03AE05D
:100260001BD124E03AE018D123E03AE015D178948C
:100270000BD14432E1F708D14734C9F705D104D195
:100280004235A9F701D14D3491F7FED0433479F7C7
:10029000FBD0FAD04C3259F34F7040936700F4D042
:1002A0004F7040936600F0D04F7040936500ECD0E3
:1002B0004F7040936400E8D04F7040936300E4D0E7
:1002C0004F70406840936200DFD0DED04F704093A3
:1002D0006100DAD04F7040936000DAD0D9D0D8D026
:1002E000D7D0D6D0D5D0D4D0D3D0CED04F704093A5
:1002F0006900CAD04F7040936800C6D04F704093D9
:100300006B005AE0772440FD752EBED04F70740EFE
:10031000406840936A00B8D04F7040936D006624E7
:10032000650E4A95E9F7B0D04F70640E406840936F
:100330006C00F894F6E0E0E0E70D849042E074167B
:1003400029F4462D4C7F461509F4839450906D0096
:1003500040906C0030906B0020906A001090690013
:1003600000906800D0916700C0916600B091650070
:10037000A09164009091630080916200819B81C094
:10038000839B7AC0869901C077C040E8942EAA2446
:1003900045E0BD5FB63010F0B65043954C0FD230FB
:1003A00009F44C5ED13009F4465FDD27483138F45A
:1003B0004A5010F0D395FCCF465FC42F30C048514F
:1003C0004A5010F0D395FCCF465FC42F212D2295C3
:1003D0002029821641F003942AE0021609F01FC07A
:1003E000002413941CC0112421E0022E2AE8239437
:1003F000221631F023E831E02216330629F00FC02F
:1004000030E8232E33940BC031E8232E3324439459
:100410002AE8421609F003C030E8432E539428E03E
:1004200032E050D027E030E04DD026E0352D4AD0E4
:1004300025E0342D47D024E0332D44D023E0322D65
:1004400041D022E0312D39293DD021E0302D3A290B
:1004500039D028E03D2F20D027E03C2F1DD026E0CA
:100460003B2F1AD025E03A2F17D024E0392F14D093
:1004700023E0382F11D0FBCE40E8A42E992446E08B
:1004800088CF9924AA24CBCF5F9BFECF4CB108958F
:10049000FBDF4C32E9F7089510E1C19808E027FD31
:1004A000016008BB330F221F00000000C19A00004A
:1004B00000001A9591F7C29A00000000C198000050
:1004C0000000089510E1C19804E027FD016008BB19
:1004D000330F221F00000000C19A000000001A958F
:1004E00091F7C39A00000000C19800000000089531
:1004F00010E1C198002727FD016008BB330F221FC0
:1005000000000000C19A000000001A9591F7C29AFD
:10051000C39A00000000C198000000000895FF93F6
:10052000EF93FF27FDBDFCBDE0916E00F0E8EF27E3
:10053000E0936E00753058F4EAB5FBB53196FBBD1B
:10054000EABD70E060E0EF91FF91FFBE1895EAB55B
:10055000FBB53197FBBDEABD79E069E0F1E0F8BF9A
:06056000EF91FF9152CD66
:0E06000031312831303130313130313031007C
:00000001FF
