:020000020000FC
:10000000CFC0FFB604C30000FFB663956A3039F075
:1000100021E030916F00362743D2FFBE1895309112
:100020006E0030936F00662721E0362739D2739532
:100030007A3039F022E030916F00372731D2FFBE9D
:100040001895772722E030916F00372729D28395C2
:100050008A3831F023E0382F306822D2FFBE18955D
:1000600080E823E0382F30681BD29395963029F032
:1000700024E0392F15D2FFBE1895992724E0392F97
:100080000FD2A395AA3029F025E03A2F09D2FFBE5E
:100090001895AA2725E03A2F03D2B395B63029F058
:1000A00026E03B2FFDD1FFBE1895BB2726E03B2F56
:1000B000F7D1C39522E0C430D20789F0CA3029F0C5
:1000C00027E03C2FEDD1FFBE1895CC2727E03C2F31
:1000D000E7D1D39528E03D2FE3D1FFBE1895DD276A
:1000E000CC2727E03C2FDCD128E03D2FD9D1212D92
:1000F000229520298216B1F003942AE0021631F0ED
:1001000021E0302D3A29E2D1FFBE1895002421E0EC
:10011000302D3A29DBD1139422E0312D3929D6D163
:10012000FFBE1895112421E0022E302D3A29CED1A0
:1001300022E0312D3929CAD121E032E823163206D6
:1001400099F02AE82394221629F023E0322DBED11B
:10015000FFBE189530E8232E23E0B8D1339424E075
:10016000332DB4D1FFBE189521E8222E332423E08D
:10017000322DACD124E0332DA9D143942AE8421684
:1001800029F025E0342DA2D1FFBE189530E8432E8A
:1001900025E09CD1539426E0352D98D1FFBE1895CB
:1001A00000270EBBE09A0DB307FF01BF000000E877
:1001B00000936E0000E0009370000AE00EBD07E2BD
:1001C0000BBD00E10ABD00E409BF03E005BF00E488
:1001D0000BBF0FE007BB00E008BB01BB0ABB0AE492
:1001E00002BB00E002B903E309B900E10AB906E085
:1001F00003B929E03FEF80D12AE03FE07DD12BE039
:1002000037E07AD12FEF30E077D12CE031E074D1B4
:10021000DD27CC27BB27AA27992780E877276627E1
:1002200028E03AE053D127E03AE050D126E03AE026
:100230004DD125E03AE84AD124E03AE047D123E025
:100240003AE844D122E03AE041D121E03AE03ED11F
:1002500028E03AE025D127E03AE022D126E03AE052
:100260001FD125E03AE01CD124E03AE019D123E087
:100270003AE016D178940CD14432E1F709D14734F1
:10028000C9F706D105D14235A9F702D14D3491F70E
:10029000FFD0433479F7FCD0FBD04C3259F34F7088
:1002A00040936700F5D04F7040936600F1D04F70D7
:1002B00040936500EDD04F7040936400E9D04F70DB
:1002C00040936300E5D04F70406840936200E0D0F7
:1002D000DFD04F7040936100DBD04F7040936000DF
:1002E000DBD0D6D0413419F450E850937000D4D00C
:1002F000D3D0D2D0D1D0D0D0CFD0CED0C9D04F70E3
:1003000040936900C5D04F7040936800C1D04F70D2
:1003100040936B005AE0772440FD752EB9D04F70A2
:10032000740E406840936A00B3D04F7040936D00E4
:100330006624650E4A95E9F7ABD04F70640E4068AD
:1003400040936C00F894F6E0E0E0E70D849042E022
:10035000741629F4462D4C7F461509F48394509069
:100360006D0040906C0030906B0020906A001090FF
:10037000690000906800D0916700C0916600B0915C
:100380006500A09164009091630080916200819B60
:100390007BC0839B75C0869901C072C040E8942ED3
:1003A000AA2449E04C0FD23009F44C5ED13009F454
:1003B000465FDD27483138F44A5010F0D395FCCF22
:1003C000465FC42F30C048514A5010F0D395FCCF3F
:1003D000465FC42F212D22952029821641F00394D7
:1003E0002AE0021609F01FC0002413941CC0112437
:1003F00021E0022E2AE82394221631F023E831E08E
:100400002216330629F00FC030E8232E33940BC098
:1004100031E8232E332443942AE8421609F003C01E
:1004200030E8432E539428E032E050D027E030E00B
:100430004DD026E0352D4AD025E0342D47D024E09C
:10044000332D44D023E0322D41D022E0312D392903
:100450003DD021E0302D3A2939D028E03D2F20D061
:1004600027E03C2F1DD026E03B2F1AD025E03A2F65
:1004700017D024E0392F14D023E0382F11D0FACE32
:100480009924AA244AE08ECF40E8A42E9924CBCF09
:100490005F9BFECF4CB10895FBDF4C32E9F7089526
:1004A00010E1C19808E027FD016008BB330F221F4F
:1004B00000000000C19A000000001A9591F7C29A4E
:1004C00000000000C19800000000089510E1C198EC
:1004D00004E027FD016008BB330F221F000000006D
:1004E000C19A000000001A9591F7C39A000000001D
:1004F000C19800000000089510E1C198002727FD71
:10050000016008BB330F221F00000000C19A0000E9
:1005100000001A9591F7C29AC39A00000000C19892
:0605200000000000089538
:100600003131283130313031313031303100FF93E8
:10061000EF93FF27FDBDFCBDE0916E00F0917000EF
:10062000EF27E0936E00753058F4EAB5FBB53196CC
:10063000FBBDEABD70E060E0EF91FF91FFBE189551
:10064000EAB5FBB53197FBBDEABD79E069E0F1E0C1
:08065000F8BFEF91FF91D9CC36
:00000001FF
